{
  "abi": [
    {
      "inputs": [],
      "stateMutability": "nonpayable",
      "type": "constructor"
    },
    {
      "anonymous": false,
      "inputs": [
        {
          "indexed": false,
          "internalType": "string",
          "name": "received",
          "type": "string"
        }
      ],
      "name": "ReceivedDataCap",
      "type": "event"
    },
    {
      "inputs": [],
      "name": "AUTHORIZE_MESSAGE_METHOD_NUM",
      "outputs": [
        {
          "internalType": "uint64",
          "name": "",
          "type": "uint64"
        }
      ],
      "stateMutability": "view",
      "type": "function"
    },
    {
      "inputs": [],
      "name": "DATACAP_RECEIVER_HOOK_METHOD_NUM",
      "outputs": [
        {
          "internalType": "uint64",
          "name": "",
          "type": "uint64"
        }
      ],
      "stateMutability": "view",
      "type": "function"
    },
    {
      "inputs": [
        {
          "internalType": "bytes",
          "name": "cidraw",
          "type": "bytes"
        },
        {
          "internalType": "uint256",
          "name": "size",
          "type": "uint256"
        }
      ],
      "name": "addCID",
      "outputs": [],
      "stateMutability": "nonpayable",
      "type": "function"
    },
    {
      "inputs": [
        {
          "internalType": "bytes",
          "name": "cidraw",
          "type": "bytes"
        },
        {
          "internalType": "bytes",
          "name": "provider",
          "type": "bytes"
        },
        {
          "internalType": "uint256",
          "name": "size",
          "type": "uint256"
        }
      ],
      "name": "authorizeData",
      "outputs": [],
      "stateMutability": "nonpayable",
      "type": "function"
    },
    {
      "inputs": [
        {
          "internalType": "bytes",
          "name": "",
          "type": "bytes"
        },
        {
          "internalType": "bytes",
          "name": "",
          "type": "bytes"
        }
      ],
      "name": "cidProviders",
      "outputs": [
        {
          "internalType": "bool",
          "name": "",
          "type": "bool"
        }
      ],
      "stateMutability": "view",
      "type": "function"
    },
    {
      "inputs": [
        {
          "internalType": "bytes",
          "name": "",
          "type": "bytes"
        }
      ],
      "name": "cidSet",
      "outputs": [
        {
          "internalType": "bool",
          "name": "",
          "type": "bool"
        }
      ],
      "stateMutability": "view",
      "type": "function"
    },
    {
      "inputs": [
        {
          "internalType": "bytes",
          "name": "",
          "type": "bytes"
        }
      ],
      "name": "cidSizes",
      "outputs": [
        {
          "internalType": "uint256",
          "name": "",
          "type": "uint256"
        }
      ],
      "stateMutability": "view",
      "type": "function"
    },
    {
      "inputs": [
        {
          "internalType": "uint64",
          "name": "method",
          "type": "uint64"
        },
        {
          "internalType": "uint64",
          "name": "",
          "type": "uint64"
        },
        {
          "internalType": "bytes",
          "name": "params",
          "type": "bytes"
        }
      ],
      "name": "handle_filecoin_method",
      "outputs": [],
      "stateMutability": "nonpayable",
      "type": "function"
    },
    {
      "inputs": [],
      "name": "owner",
      "outputs": [
        {
          "internalType": "address",
          "name": "",
          "type": "address"
        }
      ],
      "stateMutability": "view",
      "type": "function"
    }
  ],
  "bytecode": {
    "object": "0x608060405234801561001057600080fd5b50600380546001600160a01b03191633179055611019806100326000396000f3fe608060405234801561001057600080fd5b50600436106100935760003560e01c80638f8a6d8f116100665780638f8a6d8f14610166578063a6b9cea61461019f578063b34ba252146101b2578063c3bd579b146101d5578063d4a0cd0a146101e057600080fd5b80633d7650b2146100985780636fc6a748146100db578063868e10c4146101265780638da5cb5b1461013b575b600080fd5b6100c66100a6366004610d14565b805160208183018101805160008252928201919093012091525460ff1681565b60405190151581526020015b60405180910390f35b6100c66100e9366004610d50565b8151602081840181018051600282529282019482019490942091909352815180830184018051928152908401929093019190912091525460ff1681565b610139610134366004610e10565b6101f3565b005b60035461014e906001600160a01b031681565b6040516001600160a01b0390911681526020016100d2565b610191610174366004610d14565b805160208183018101805160018252928201919093012091525481565b6040519081526020016100d2565b6101396101ad366004610e70565b610330565b6101bd63de180de381565b6040516001600160401b0390911681526020016100d2565b6101bd639d8b067881565b6101396101ee366004610ee3565b6104f5565b639d8b0677196001600160401b0385160161024d573660006102158484610568565b915091503660003660008061022a87876106a1565b945094509450945094506102418585858585610330565b5050505050505061032a565b63de180de2196001600160401b038516016102c2577f10aa319ed8cad9bceb033c0c2788c4ae17469ac844e4c6e2c2e20e74ca8a7be86040516102b590602080825260119082015270446174614361702052656365697665642160781b604082015260600190565b60405180910390a161032a565b60405162461bcd60e51b815260206004820152603260248201527f7468652066696c65636f696e206d6574686f642074686174207761732063616c6044820152711b1959081a5cc81b9bdd081a185b991b195960721b60648201526084015b60405180910390fd5b50505050565b60008585604051610342929190610f2e565b9081526040519081900360200190205460ff166103ad5760405162461bcd60e51b8152602060048201526024808201527f636964206d757374206265206164646564206265666f726520617574686f72696044820152637a696e6760e01b6064820152608401610321565b80600186866040516103c0929190610f2e565b9081526020016040518091039020541461041c5760405162461bcd60e51b815260206004820152601d60248201527f646174612073697a65206d757374206d617463682065787065637465640000006044820152606401610321565b610428858585856109e5565b61049c576040805162461bcd60e51b81526020600482015260248101919091527f6465616c206661696c656420706f6c69637920636865636b3a2068617320707260448201527f6f766964657220616c726561647920636c61696d65642074686973206369643f6064820152608401610321565b6001600286866040516104b0929190610f2e565b908152602001604051809103902084846040516104ce929190610f2e565b908152604051908190036020019020805491151560ff199092169190911790555050505050565b6003546001600160a01b0316331461050c57600080fd5b600160008484604051610520929190610f2e565b908152604051908190036020018120805492151560ff199093169290921790915581906001906105539086908690610f2e565b90815260405190819003602001902055505050565b366000808484828161057c5761057c610f3e565b9050013560f81c60f81b6001600160f81b031916604160f91b146105a2576105a2610f54565b6105ad600182610f6a565b90506000806105f387878080601f016020809104026020016040519081016040528093929190818152602001838380828437600092019190915250879250610a37915050565b94509092506001600160401b0316905060ff821660021461061657610616610f54565b6106208184610f6a565b925061066387878080601f016020809104026020016040519081016040528093929190818152602001838380828437600092019190915250879250610a37915050565b94509092506001600160401b0316905060ff821660021461068657610686610f54565b6106928684818a610f8b565b945094505050505b9250929050565b3660003660008060008787828181106106bc576106bc610f3e565b9050013560f81c60f81b6001600160f81b031916608b60f81b146106e2576106e2610f54565b6106ed600182610f6a565b905087878281811061070157610701610f3e565b9050013560f81c60f81b6001600160f81b031916601b60fb1b1461072757610727610f54565b610732600182610f6a565b905087878281811061074657610746610f3e565b9050013560f81c60f81b6001600160f81b031916601560f91b1461076c5761076c610f54565b610777600182610f6a565b90506000806107bd8a8a8080601f016020809104026020016040519081016040528093929190818152602001838380828437600092019190915250879250610a37915050565b94509092506001600160401b0316905060ff82166002146107e0576107e0610f54565b89838a6107ed8483610f6a565b926107fa93929190610f8b565b90985096506108098184610f6a565b925061084c8a8a8080601f016020809104026020016040519081016040528093929190818152602001838380828437600092019190915250879250610a37915050565b6001600160401b0390911695509350915060ff82161561086e5761086e610f54565b89898481811061088057610880610f3e565b9050013560f81c60f81b6001600160f81b031916603d60fa1b14806108cd57508989848181106108b2576108b2610f3e565b9050013560f81c60f81b6001600160f81b03191660f560f81b145b6108d9576108d9610f54565b6108e4600184610f6a565b92506109278a8a8080601f016020809104026020016040519081016040528093929190818152602001838380828437600092019190915250879250610a37915050565b94509092506001600160401b0316905060ff821660021461094a5761094a610f54565b6109548184610f6a565b92506109978a8a8080601f016020809104026020016040519081016040528093929190818152602001838380828437600092019190915250879250610a37915050565b94509092506001600160401b0316905060ff82166002146109ba576109ba610f54565b89838a6109c78483610f6a565b926109d493929190610f8b565b955095505050509295509295909350565b600080600286866040516109fa929190610f2e565b90815260200160405180910390208484604051610a18929190610f2e565b9081526040519081900360200190205460ff1615915050949350505050565b600080600080610a478686610b94565b9050610a54600186610f6a565b94506007600582901c16601f8216601c8110610a7257610a72610f54565b60188160ff161015610a905790945060ff169250849150610b8d9050565b8060ff16601803610add576000610aa78989610b94565b9050610ab4600189610f6a565b975060188160ff161015610aca57610aca610f54565b9195505060ff169250849150610b8d9050565b8060ff16601903610b17576000610af48989610bd0565b9050610b01600289610f6a565b97509195505061ffff169250849150610b8d9050565b8060ff16601a03610b53576000610b2e8989610c06565b9050610b3b600489610f6a565b97509195505063ffffffff169250849150610b8d9050565b8060ff16601b14610b6657610b66610f54565b6000610b728989610c3c565b9050610b7f600889610f6a565b975091955090935085925050505b9250925092565b6000610ba1826001610f6a565b83511015610bc15760405162461bcd60e51b815260040161032190610fb5565b50818101600101515b92915050565b6000610bdd826002610f6a565b83511015610bfd5760405162461bcd60e51b815260040161032190610fb5565b50016002015190565b6000610c13826004610f6a565b83511015610c335760405162461bcd60e51b815260040161032190610fb5565b50016004015190565b6000610c49826008610f6a565b83511015610c695760405162461bcd60e51b815260040161032190610fb5565b50016008015190565b634e487b7160e01b600052604160045260246000fd5b600082601f830112610c9957600080fd5b81356001600160401b0380821115610cb357610cb3610c72565b604051601f8301601f19908116603f01168101908282118183101715610cdb57610cdb610c72565b81604052838152866020858801011115610cf457600080fd5b836020870160208301376000602085830101528094505050505092915050565b600060208284031215610d2657600080fd5b81356001600160401b03811115610d3c57600080fd5b610d4884828501610c88565b949350505050565b60008060408385031215610d6357600080fd5b82356001600160401b0380821115610d7a57600080fd5b610d8686838701610c88565b93506020850135915080821115610d9c57600080fd5b50610da985828601610c88565b9150509250929050565b80356001600160401b0381168114610dca57600080fd5b919050565b60008083601f840112610de157600080fd5b5081356001600160401b03811115610df857600080fd5b60208301915083602082850101111561069a57600080fd5b60008060008060608587031215610e2657600080fd5b610e2f85610db3565b9350610e3d60208601610db3565b925060408501356001600160401b03811115610e5857600080fd5b610e6487828801610dcf565b95989497509550505050565b600080600080600060608688031215610e8857600080fd5b85356001600160401b0380821115610e9f57600080fd5b610eab89838a01610dcf565b90975095506020880135915080821115610ec457600080fd5b50610ed188828901610dcf565b96999598509660400135949350505050565b600080600060408486031215610ef857600080fd5b83356001600160401b03811115610f0e57600080fd5b610f1a86828701610dcf565b909790965060209590950135949350505050565b8183823760009101908152919050565b634e487b7160e01b600052603260045260246000fd5b634e487b7160e01b600052600160045260246000fd5b80820180821115610bca57634e487b7160e01b600052601160045260246000fd5b60008085851115610f9b57600080fd5b83861115610fa857600080fd5b5050820193919092039150565b602080825260149082015273736c6963696e67206f7574206f662072616e676560601b60408201526060019056fea264697066735822122028b899b75fdb0ae47d15465c705471b1e9a2d2bc143ff84ad1b05db1dd82987564736f6c63430008110033",
    "linkReferences": {}
  },
  "methodIdentifiers": {
    "AUTHORIZE_MESSAGE_METHOD_NUM()": "c3bd579b",
    "DATACAP_RECEIVER_HOOK_METHOD_NUM()": "b34ba252",
    "addCID(bytes,uint256)": "d4a0cd0a",
    "authorizeData(bytes,bytes,uint256)": "a6b9cea6",
    "cidProviders(bytes,bytes)": "6fc6a748",
    "cidSet(bytes)": "3d7650b2",
    "cidSizes(bytes)": "8f8a6d8f",
    "handle_filecoin_method(uint64,uint64,bytes)": "868e10c4",
    "owner()": "8da5cb5b"
  },
  "id": 15
}